:060000000C942A000C9490
:1000060000000C9400000C9400000C9400000C946A
:1000160000000C9400000C9400000C9400000C945A
:1000260000000C9400000C9400000C9400000C944A
:1000360000000C9400000C9400000C9400000C943A
:1000460000000C9400000C9400000C940000F8943E
:10005600EE27ECBBF1E0FBBFEBBFE5BF8DE0A2E016
:10006600BB27ED938A95E9F780E094E0A0E6ED934F
:100076000197E9F7EFE5EDBFE4E0EEBFC0E6D1E0BA
:100086000C944500E0E0EABBE9BBEFEFE7BBE0E03C
:10009600E8BB7894C89B14C017D01CD021D026D0BA
:1000A6002BD030D035D0C79AA4E6B0E037D0C79869
:1000B6002FD028D021D01AD013D00CD005D002C012
:1000C600E0E0E8BBE7CFFFCFC09AA4E6B0E026D0D9
:1000D600C0980895C19AA4E6B0E020D0C1980895CA
:1000E600C29AA4E6B0E01AD0C2980895C39AA4E6CC
:1000F600B0E014D0C3980895C49AA4E6B0E00ED038
:10010600C4980895C59AA4E6B0E008D0C5980895A5
:10011600C69AA4E6B0E002D0C6980895109639F0C3
:10012600A89580ED97E00197F1F71197C9F7089523
:00000001FF
