:060000000C9446000C9474
:1000060000000C9400000C9400000C9400000C946A
:1000160000000C9400000C9400000C9473000C94E7
:1000260000000C9400000C9400000C9400000C944A
:1000360000000C9400000C9400000C9400000C943A
:1000460000000C9400000C9400000C940000102793
:10005600E80364000A00010000100001100001001E
:1000660000000000BF008600DB00CF006600ED0048
:10007600FD008700FF00EF00040004006600130087
:1000860060016A000000F894EE27ECBBF1E0FBBFCC
:10009600EBBFE5BF8DE0A2E0BB27ED938A95E9F7BC
:1000A60080E094E0A0E6ED930197E9F7EEE7F0E053
:1000B60085919591009761F0A591B5910590159060
:1000C600BF01F00105900D920197E1F7FB01F0CF1A
:1000D600EFE5EDBFE4E0EEBFC0E6D1E00C949E0094
:1000E6000A92AA93BA93EA93FA93EFB7EA93062C85
:1000F6000728A9F4989B13C0EAE0F0E04E165F06C5
:1001060014F044245524F201A0E6B1E0EE0FFF1FDF
:10011600AE0FBF1FEC91EBBBF20131962F01F3013D
:1001260031963F0118D0E991EFBFF991E991B99164
:10013600A99109901895A098EFEFEABBE0E0EFBD12
:10014600E1E0EEBD08D0E0E0E5BFE4BFE4E0E9BFF2
:100156007894FFCFFFCFEFEFEDBDE0EFECBD089554
:00000001FF
